S00F000050726F6A6563742E737265633E
S11300000C942A000C9447000C9447000C9447006D
S11300100C9447000C9447000C9447000C94470040
S11300200C9447000C9447000C9447000C94470030
S11300300C9447000C9447000C9447000C94470020
S11300400C9447000C9447000C9447000C94470010
S11300500C94470011241FBECFE5D4E0DEBFCDBF12
S113006013E0A0E6B0E0E6E2F1E102C005900D92F3
S1130070AE37B107D9F723E0AEE7B3E001C01D9274
S1130080AE37B207E1F70E9410030C9491080C9468
S113009000008BB1881F8827881F08955F9BFECFBF
S11300A08CB10895CF93DF93C0E0D0E00E944E005E
S11300B08A3021F0882311F08D3011F4209779F4DF
S11300C09E01220F331FCC0FDD1FCC0FDD1FCC0F81
S11300D0DD1FC20FD31FC80FD11DE097E7CFCE019C
S11300E0DF91CF9108955D9BFECF8CB908958BB1BC
S11300F082608BB98AB188618AB980B5866880BD0F
S113010087E689B910BC08950F931F93CF93DF93AB
S11301108C01C0E0D0E00DC0F801EC0FFD1F808120
S11301200E9473008FE39CE90197F1F700C000007F
S11301302196F80101900020E9F73197E01BF10BBB
S1130140CE17DF0748F3DF91CF911F910F910895E8
S1130150CF93DF93CDB7DEB72A970FB6F894DEBFFF
S11301600FBECDBF4AE0BE016F5F7F4F0E945C08A7
S1130170CE0101960E9484002A960FB6F894DEBF41
S11301800FBECDBFDF91CF91089584B3816084BB4E
S113019085B38E7F85BB089585B3816085BB089543
S11301A085B38E7F85BB089581B3806881BB8FE65C
S11301B085BD08952FEF829FC0011124BC01990FC2
S11301C0880B990B0E945A0720E030E048EC52E477
S11301D00E94B0060E94290763BD089563B584E6B2
S11301E0689FB0011124072E000C880B990B0E9404
S11301F05A0720E030E04FE753E40E94B0060E9423
S11302002207CB0108950E94EE00892B29F484E68D
S11302100E94DA0081E0089580E00E94DA0080E024
S1130220089584B3806184BB84B3806284BB84B347
S1130230806484BB84B3806884BB84B38D7F84BBB7
S113024084B38B7F84BB84B3877F84BB8BB382608E
S11302508BBB8BB384608BBB8BB388608BBB0895E3
S113026088E744C095B361E070E00E2E02C0660FCB
S1130270771F0A94E2F7262F2095922395BB21E05D
S113028030E026C049B350E0022E02C05595479590
S11302900A94E2F740FD1AC089B390E0022E02C02E
S11302A0959587950A94E2F780FFF6CFCF010497DE
S11302B0AC01440F551F840F951F805A9F4FA9010D
S11302C041505109DC01A40FB51F8C912F5F3F4FA2
S11302D024303105BCF295B3692B65BB319602C05D
S11302E0E4E0F0E0E830F1050CF4BCCF8837C1F36A
S11302F00895E4E0F0E088E73DC095B361E070E084
S11303000E2E02C0660F771F0A94E2F7262F20955F
S1130310922395BB21E030E026C049B350E0022E81
S113032002C0559547950A94E2F740FD1AC089B377
S113033090E0022E02C0959587950A94E2F780FF1B
S1130340F6CFCF010497AC01440F551F840F951FBE
S1130350805A9F4FA90141505109DC01A40FB51FD8
S11303608C912F5F3F4F24303105BCF295B3692B3C
S113037065BB3196E830F1050CF4BFCF089598B30E
S1130380282F207F9F70922B98BB98B39E7F98BB99
S113039098B3926098BBEFECF7E03197F1F700C0A7
S11303A0000098B39D7F98BBEFE1FEE43197F1F72D
S11303B000C00000F0E18F9FC001112498B39F702A
S11303C0892B88BB88B3826088BB8FEC97E0019748
S11303D0F1F700C0000088B38D7F88BB08958FEFCC
S11303E087BB8FE39CE90197F1F700C0000082E02E
S11303F00E94BF0188E20E94BF018EE00E94BF01FB
S113040086E00E94BF0181E00E94BF018FE99FE066
S11304100197F1F700C00000089598B3282F207FBA
S11304209F70922B98BB98B3916098BB98B39260DD
S113043098BBEFECF7E03197F1F700C0000098B3F8
S11304409D7F98BBEFE1FEE43197F1F700C0000017
S1130450F0E18F9FC001112498B39F70892B88BB52
S113046088B3826088BB8FEC97E00197F1F700C0F6
S1130470000088B38D7F88BB08950F931F93CF939B
S1130480DF938C01C0E0D0E007C0F801EC0FFD1F42
S113049080810E940D022196F80101900020E9F765
S11304A03197E01BF10BCE17DF0778F3DF91CF9183
S11304B01F910F910895CF93DF93CDB7DEB72A979D
S11304C00FB6F894DEBF0FBECDBF4AE0BE016F5F2A
S11304D07F4F0E945C08CE0101960E943D022A963D
S11304E00FB6F894DEBF0FBECDBFDF91CF91089554
S11304F08CE690E00E943D0280EC0E94BF018DE7F3
S113050090E00E943D02089584B3846084BB8AB362
S113051080618ABB8AB380628ABB8AB380648ABBE7
S11305208AB380688ABB089585B38B7F85BB8BB300
S11305308F7E8BBB8BB38F7D8BBB8BB38F7B8BBB46
S11305408BB38F778BBB08958330A9F028F4813067
S113055041F0823059F00895843091F08530A9F04B
S1130560089595B384E0892785BB08959BB380E102
S113057089278BBB08959BB380E289278BBB0895A1
S11305809BB380E489278BBB08958BB380588BBBC6
S11305900895AA9905C088E890E00E94840004C0E8
S11305A08EE990E00E9484008AE00E947300DC9946
S11305B005C083EB90E00E94840004C085EC90E0C9
S11305C00E9484008AE00E947300DD9905C086EDD4
S11305D090E00E94840004C088EE90E00E948400B1
S11305E08AE00E947300DE9905C089EF90E00E94C2
S11305F0840004C08CE091E00E9484008AE00E94A0
S11306007300DF9905C08EE191E00E94840004C06C
S113061081E391E00E9484008AE00E9473000895BF
S1130620CF93DF9300D000D01F92CDB7DEB785E023
S1130630E8E4F1E0DE01119601900D928A95E1F76C
S11306400E9469030E948203CE0101960E94110454
S113065083E491E00E9419060E942C040E94B604CF
S1130660882371F38230D1F70E9482030E944006EE
S11306708AE00E947300E4CF81B3886081BB08954F
S113068082B3886082BB089582B3877F82BB08955A
S113069092B388E0892782BB08958D3120F00E94AF
S11306A0400381E00895853120F40E94440380E0F2
S11306B0089580E0089581B38B7F81BB82B3846009
S11306C082BB089581B3806481BB82B3806482BBA2
S11306D008950E94EF010E9411010E943C030E94B0
S11306E06D0680E090E00E9499060E9484020E94B8
S11306F0D4000E9477000E945B030E94C5000E9400
S1130700620308950E9444030E94940280E00E94C0
S1130710DA000E94AB060E94D0000895CF92DF92C7
S1130720FF920F931F93CF93DF9300D000D01F92BB
S1130730CDB7DEB76C010E9482030F2EF3E3FF2EC8
S1130740F02D43C081E00E94BF010E94780200E0C6
S113075010E00DC00E943001E1E0F0E0EC0FFD1F5D
S1130760E00FF11F80830E940D020F5F1F4F0430C2
S1130770110584F31D82B601CE0101960E9453082F
S1130780892BF9F0FA9420E3F216F9F080E90E943B
S1130790BF018F2D0E940D028DE491E00E943D0265
S11307A080ED0E94BF0187E591E00E943D028FEF3A
S11307B093ED20E3815090402040E1F700C0000019
S11307C004C081E00E94BF0103C080E3F812BACFE5
S11307D08F2D0F900F900F900F900F90DF91CF916E
S11307E01F910F91FF90DF90CF9008958033B9F45B
S11307F081E00E94BF0181E691E00E943D0280EC0D
S11308000E94BF018EE691E00E943D0280E90E94B1
S1130810BF0184E791E00E943D0281E3089580E3F3
S11308200895CF930E948E030E94F603C82F81334C
S113083021F48DE791E00E9484008AE00E94730015
S113084007C00E94CC00829903C00E94D00002C05D
S1130850C133B9F3CF910895CF930E9478060E94D3
S11308604D03C82F81E00E94BF01C11109C081EA74
S113087091E00E943D0281EA91E00E94840008C058
S113088089EA91E00E943D0289EA91E00E94840095
S11308908AE00E94730080EC0E94BF0180EB91E02B
S11308A00E943D020E9478060E945B0280EB91E068
S11308B00E9484000E9478060E94A8008AE00E9498
S11308C0730080E90E94BF01979909C087EB91E00A
S11308D00E943D0287EB91E00E94840008C083ECF3
S11308E091E00E943D0283EC91E00E9484008AE042
S11308F00E94730080ED0E94BF018EEC91E00E9483
S11309003D020E94C902CEE60E944900882319F0E4
S11309100E944E00C82F0E9479018A3211F0CA3217
S113092099F78DED91E00E9484008AE00E947300A3
S113093081E00E94BF0185EF91E00E943D0280ECBE
S11309400E94BF0182E092E00E943D0280E90E9481
S1130950BF0183E192E00E943D0280ED0E94BF014D
S113096080E292E00E943D02CF9108951F93CF93BD
S1130970DF930E947901D82F0E944900882321F037
S11309800E944E00C82F01C0CEE6D13311F0C1360B
S113099089F40E944803939904C08AE292E00E9479
S11309A08400939B04C082E492E00E9484008AE065
S11309B00E947300D23389F40E940301C82F81116D
S11309C005C089E592E00E94840004C085E792E0B6
S11309D00E9484008AE00E947300C43659F58AE0BC
S11309E00E94730080E992E00E9484000E94EE005D
S11309F00E94A8008AE00E9473008FE992E00E949E
S1130A0084000E945200182F85369105D0F70E9469
S1130A10A800812F0E94DA008AE00E94730081EB13
S1130A2092E00E9484000E94EE000E94A8008AE0E6
S1130A300E947300D33311F0C434F1F48AE00E94AD
S1130A4073000E94A6068EEC92E00E9484002FEFB1
S1130A5083ED90E3215080409040E1F700C0000016
S1130A600E94AB068AE00E9473008AED92E00E9425
S1130A7084008AE00E947300CC36C1F48AE00E94AC
S1130A80730081E00E94A40286EE92E00E9484003A
S1130A90AA9B05C089EF92E00E94840004C08CEFF9
S1130AA092E00E9484008AE00E947300C236C1F47E
S1130AB08AE00E94730082E00E94A40280E093E036
S1130AC00E948400DC9B05C089EF92E00E948400B0
S1130AD004C08CEF92E00E9484008AE00E947300BC
S1130AE0CB36C1F48AE00E94730083E00E94A40222
S1130AF08FE093E00E948400DD9B05C089EF92E0C3
S1130B000E94840004C08CEF92E00E9484008AE07A
S1130B100E947300C234C1F48AE00E94730084E02E
S1130B200E94A4028EE193E00E948400DE9B05C033
S1130B3089EF92E00E94840004C08CEF92E00E944E
S1130B4084008AE00E947300CB34C1F48AE00E94DE
S1130B50730085E00E94A4028EE293E00E94840068
S1130B60DF9B05C089EF92E00E94840004C08CEFF3
S1130B7092E00E9484008AE00E947300C43771F4FA
S1130B808AE00E9473008EE393E00E9484000E9436
S1130B9078060E94A8008AE00E947300D43311F002
S1130BA0C33771F48AE00E94730080E593E00E94E9
S1130BB084008AE00E9473000E942C0480E035C007
S1130BC0969B02C0C33581F58AE00E9473008DE5CF
S1130BD093E00E9484002FEF84E39CE02150804046
S1130BE09040E1F700C000008EE20E9473002FEFF6
S1130BF084E39CE0215080409040E1F700C0000075
S1130C008EE20E9473002FEF84E39CE02150804029
S1130C109040E1F700C000008EE20E9473008AE079
S1130C200E94730082E001C081E0DF91CF911F91A7
S1130C300895CF93DF93EC0181E00E94BF0186E623
S1130C4093E00E943D02CE010E943D0288E693E0BB
S1130C500E948400CE010E9484008AE00E947300F6
S1130C600E94A6062FEF83ED90E321508040904030
S1130C70E1F700C000000E94AB06DF91CF91089518
S1130C8081E00E94BF0180E793E00E943D0283E47B
S1130C9091E00E943D0288E793E00E94840083E48F
S1130CA091E00E9484002FEF83ED90E32150804077
S1130CB09040E1F700C0000081E00E94BF01089568
S1130CC087B1806487B986B1846086B986B180684B
S1130CD086B986B1806486B908958AB38E7F8ABB4B
S1130CE00E946006349BFECF86B1806186B9089568
S1130CF086B1806486B9349BFECF86B1806186B9A3
S1130D0064B175B180E090E00E94580723E23BEDA6
S1130D1049EF5EE30E94E6070E942207CB01089593
S1130D2083E28FBD8BE18EBD83EC99E09BBD8ABDD0
S1130D300895CF93DF93EC010E94900681B3806104
S1130D4081BBD9BDC8BDDF91CF9108958BEB90E0F5
S1130D500E94990608958DE790E00E9499060895EF
S1130D600E94C4060C94AC070E94A50758F00E9488
S1130D709E0740F029F45F3F29F00C949507511128
S1130D800C94E0070C949B070E94BD0768F3992319
S1130D90B1F3552391F3951B550BBB27AA27621773
S1130DA07307840738F09F5F5F4F220F331F441F80
S1130DB0AA1FA9F335D00E2E3AF0E0E832D09150B4
S1130DC05040E695001CCAF72BD0FE2F29D0660FA1
S1130DD0771F881FBB1F261737074807AB07B0E8E4
S1130DE009F0BB0B802DBF01FF2793585F4F3AF0EA
S1130DF09E3F510578F00C9495070C94E0075F3FF3
S1130E00E4F3983ED4F3869577956795B795F7956F
S1130E109F5FC9F7880F911D9695879597F9089557
S1130E20E1E0660F771F881FBB1F621773078407F3
S1130E30BA0720F0621B730B840BBA0BEE1F88F702
S1130E40E09508950E9429076894B1110C94E00775
S1130E5008950E94C50788F09F5798F0B92F9927E5
S1130E60B751B0F0E1F0660F771F881F991F1AF091
S1130E70BA95C9F714C0B13091F00E94DF07B1E010
S1130E8008950C94DF07672F782F8827B85F39F00F
S1130E90B93FCCF3869577956795B395D9F73EF42A
S1130EA090958095709561957F4F8F4F9F4F0895D2
S1130EB0E89409C097FB3EF49095809570956195F0
S1130EC07F4F8F4F9F4F9923A9F0F92F96E9BB27A6
S1130ED09395F695879577956795B795F111F8CF22
S1130EE0FAF4BB0F11F460FF1BC06F5F7F4F8F4F8D
S1130EF09F4F16C0882311F096E911C0772321F083
S1130F009EE8872F762F05C0662371F096E8862F1A
S1130F1070E060E02AF09A95660F771F881FDAF771
S1130F20880F9695879597F9089597F99F6780E8B4
S1130F3070E060E008959FEF80EC089500240A9427
S1130F401616170618060906089500240A941216A0
S1130F501306140605060895092E0394000C11F4D3
S1130F60882352F0BB0F40F4BF2B11F460FF04C080
S1130F706F5F7F4F8F4F9F4F089557FD9058440FD9
S1130F80551F59F05F3F71F04795880F97FB991FE4
S1130F9061F09F3F79F087950895121613061406A1
S1130FA0551FF2CF4695F1DF08C01616170618062E
S1130FB0991FF1CF86957105610508940895E89409
S1130FC0BB2766277727CB0197F908950E94F90775
S1130FD00C94AC070E949E0738F00E94A50720F0ED
S1130FE0952311F00C9495070C949B0711240C94F1
S1130FF0E0070E94BD0770F3959FC1F3950F50E081
S1131000551F629FF001729FBB27F00DB11D639FB6
S1131010AA27F00DB11DAA1F649F6627B00DA11D5C
S1131020661F829F2227B00DA11D621F739FB00D02
S1131030A11D621F839FA00D611D221F749F332772
S1131040A00D611D231F849F600D211D822F762F0B
S11310506A2F11249F5750409AF0F1F088234AF0E8
S1131060EE0FFF1FBB1F661F771F881F9150504054
S1131070A9F79E3F510580F00C9495070C94E00766
S11310805F3FE4F3983ED4F3869577956795B795DB
S1131090F795E7959F5FC1F7FE2B880F911D9695F5
S11310A0879597F90895FB01DC018D9101908019D2
S11310B00110D9F3990B0895BB274A3031F49923D1
S11310C022F4BDE2909581959F4F0C946808BB274C
S11310D0FB015527AA27880F991FAA1FA41710F0F0
S11310E0A41B83955051B9F7A05DAA3308F0A95DFC
S11310F0A193009779F7B111B1931192CB010C949C
S11311008108DC01FC01672F71917723E1F73297A5
S113111004C07C916D9370836291AE17BF07C8F3CE
S10911200895F894FFCFCE
S11311263132333435363738392A3078203E5365F0
S1131136637572697479204D6F64653C0050617300
S113114673776F72643A20004C6976696E67207211
S11311566F6F6D206C616D703A204F4646004C6986
S113116676696E6720726F6F6D206C616D703A20C0
S11311764F4E00426564726F6F6D206C616D703AFC
S1131186204F464600426564726F6F6D206C616D38
S1131196703A204F4E004B69746368656E206C612B
S11311A66D703A204F4646004B69746368656E203D
S11311B66C616D703A204F4E0042617468726F6FB5
S11311C66D206C616D703A204F464600426174682A
S11311D6726F6F6D206C616D703A204F4E004B69D3
S11311E66473726F6F6D206C616D703A204F464662
S11311F6004B696473726F6F6D206C616D703A2079
S11312064F4E004162646F0030303030002061740C
S113121674656D7074730072656D61696E696E676D
S1131226002020203E3E4552524F523C3C0052651F
S1131236736574004D616E75616C6C7900576172EB
S11312466E696E6721210A52657365742074686538
S11312562073797374656D206D616E75616C6C793C
S11312660041433A204F46460041433A204F4E0040
S113127654656D703A200044696D6D65723A204F6D
S113128646460044696D6D65723A204F4E002A2029
S1131296666F722053657474696E67730053657460
S11312A674696E6773206D6F646520616374697613
S11312B66174656400312D20414320546F67676C67
S11312C66500322D2044696D6D657220546F676721
S11312D66C6500332D20446F6F72204F70656E006D
S11312E6342D20537461747573004143206861730F
S11312F6206265656E207475726E6564206F66661D
S11313062E00414320686173206265656E20747502
S1131316726E6564206F6E2E0044696D6D65722071
S1131326686173206265656E207475726E656420EB
S11313366F66662E0044696D6D6572206861732060
S11313466265656E207475726E6564206F6E2E001C
S113135644696D6D657220706F7765723A20004539
S11313666E7465722074686520706F7765723A20B2
S11313760044696D6D657220706F776572206861CF
S113138673206368616E67656420746F2000446F20
S11313966F72206F70656E732E00446F6F722063D8
S11313A66C6F736573004C6976696E6720726F6F34
S11313B66D206C616D703A20006F6E006F6666007A
S11313C6426564726F6F6D206C616D703A20004BDC
S11313D669746368656E206C616D703A20004261C1
S11313E67468726F6F6D206C616D703A20004B6982
S11313F66473726F6F6D206C616D703A200054686F
S1131406652074656D70657261747572653A200045
S1131416546865207374617475733A200053687553
S113142674646F776E00202048656C6C6F2C200006
S11114362020204279652C004279652C20008C
S9030000FC
